:020000041000EA
:10000000002008205D0100101301001015010010F0
:100010001101001011010010110100101101001058
:1000200011010010110100101101001031500010D9
:100030001101001011010010B14F00100D4D001002
:100040001D0100101D0100101D0100101D010010F8
:100050001D0100101D0100101D0100101D010010E8
:100060001D0100101D0100101D0100101D010010D8
:100070001D0100101D0100101D0100101D010010C8
:100080001D0100101D0100101D0100101D010010B8
:100090001D0100101D0100101D0100101D010010A8
:1000A0001D0100101D0100101D0100101D01001098
:1000B0001D0100101D0100101D0100101D01001088
:1000C0001D0100101D0100101D0100101D01001078
:1000D0001D0100101D0100101D0100101D01001068
:1000E0001D0100101D0100101D0100101D01001058
:1000F0001D0100101D0100101D0100101D01001048
:100100001D0100101D0100101D0100101D01001037
:1001100000BE00BE00BE00BE00BE00BEEFF3058004
:10012000103800BEF2EB8871A0610010C0610010B1
:10013000A801001090A31AE7D3DEFFFF42012110AF
:10014000FF010000286E0000793512AB4FF000006F
:100150002049086006C881F3088810474FF05040D6
:10016000006810B14FF00000F2E70FA40ECC002998
:1001700002D000F015F8F9E71749184A002000E00E
:1001800001C19142FCD1002080F30A8814498847BC
:10019000144988471449884700BEFDE701C901C2D8
:1001A0009A42FBD3704700BFC061001010010020CD
:1001B000B00E0020606F0010000008200000082032
:1001C000606F0010001008200010082000000000E0
:1001D0007047000008ED00E0B00E00201814002069
:1001E0001D2C0010BD030010152C0010F8B500BF29
:1001F000064B0749C91A891048BF0131491003D07D
:10020000044B0BB101481847704700BFB00E0020E7
:10021000B00E00200000000008B5054B1BB10549D9
:100220000548AFF30080BDE80840FFF7E1BF00BF1D
:100230000000000074120020D05F001008B51A49B9
:100240001A4802F02FFF0321102000F0E9F80321E3
:10025000112000F0E5F800220121102000F0FEF846
:1002600000220121112000F0F9F8104805F01AF8D9
:100270000F4805F035F808210022012002F084FF24
:1002800002460C4B01201A6003F0FAF802460A4BB2
:10029000064827211A6004F0D7FF04F0ADFFBDE83F
:1002A0000840002003F0D2BEA08601003C090020D7
:1002B000101200203C1300207012002000B5154CD5
:1002C000154E85B04FF0FF31206803F051FA6846B3
:1002D00001A905F039F8002320681A46194602F0F2
:1002E0008FFF0E49009805F065F80346DDE9001020
:1002F0000A4A029305F082F805460223002230687C
:1003000002A9039502F07CFF4FF47A7004F024F800
:10031000D8E700BF701200203C130020101200200C
:10032000002300B58BB0CDE9003304F065FF1E4D0E
:100330001E4C1F4E4FF0FF326946286803F0D4F878
:1003400068B34FF0FF31206803F012FA04F054FF55
:10035000009805F009FE02460B4602A8154902F076
:1003600013FC0021084604F04BFF02A804F060FFD4
:10037000019B114986FB0302DB17C3EBA21206A8FF
:1003800002F002FC0021012004F03AFF06A804F06C
:100390004FFF002320681A46194602F031FF4FF440
:1003A0007A7003F0D9FFC5E73C13002070120020DB
:1003B000D34D6210D05F0010E05F001000240325D1
:1003C00000B583B002F00EFDCDE9005401254FF4D5
:1003D000807223460C490D4803F0B6FD4FF480723D
:1003E00023460B49CDE900540A4803F0ADFD4FF414
:1003F000807223460849CDE90054084803F0A4FD63
:1004000003F082FEFEE700BFF05F00103D02001027
:1004100000600010BD0200100860001021030010F1
:1004200010B44FF480740C4B53F8202003EB80037E
:10043000C00082F0400200F1804003F5805C02F0D1
:10044000C00200F5203003F54053CCF80020416095
:100450001C605DF8044B70470480034010B4084CE6
:10046000C90041EA820154F8202004EB8003514086
:1004700003F5805301F00C015DF8044B19607047DF
:10048000048003400FB400B583B0049C074802F019
:10049000EDFC3CB105A92046019102F08BFB04481C
:1004A00002F0E4FC012002F09DFB00BF1060001090
:1004B0002060001070B58646EFF3108572B6124CBE
:1004C000D4E8CF6F0120002EFAD1C4E8460F002EE9
:1004D000F6D1BFF35F8F4FF0010CC80801F007039E
:1004E0000CFA03F31EF800C01CEA030608D14CEA1C
:1004F000030C0EF800C0C4E88F6F85F3108870BD40
:100500001046FFF7BFFF00BFFB110020044A107820
:10051000431CDBB2182B28BF10231370704700BF99
:10052000200900204FF0E022936843F000539360CD
:10053000704700BF0021044B03F12002C3E88F1F66
:1005400001339342FAD17047F01100204FF0E023BD
:100550004FF08032C3F80024C3F80424C3F8082401
:10056000C3F80C24C3F81024C3F81424C3F81824C7
:10057000C3F81C24C3F82024C3F82424C3F8282477
:10058000C3F82C24C3F83024704700BF012300F0C7
:100590001F029340400941B1800000F1604000F526
:1005A0006140C0F8803103607047024A203042F851
:1005B0002030704700E100E0F8B50D46EFF31087FA
:1005C00072B6124ED6E8CF2F0123002AFAD1C6E820
:1005D000423F002AF6D1BFF35F8F0D4B00F11004AC
:1005E0009B680C4A53F82430934203D0994201D0BF
:1005F00000F004FD064B9B6843F82450BFF35F8F67
:100600000023C6E88F3F87F31088F8BDF91100205A
:1006100000ED00E01D010010014B0B44036070472A
:10062000F011002070B5104C104DAC420ED2FF26D8
:10063000236863B1FFF76AFF01462046FFF7ECFF2E
:10064000A680BFF35F8F0834AC42F1D370BDFFF7D3
:100650005DFF01462046FFF7DFFF2671BFF35F8F86
:100660000834AC42E4D370BDA80E0020B00E0020C8
:100670000D4B1A68EFF3108172B6D2E8CFCF01208C
:10068000BCF1000FF9D1C2E84C0FBCF1000FF4D15E
:10069000BFF35F8F00221B68C3E88F2F81F31088A0
:1006A00040BF0020002170474013002000000000E0
:1006B0002DE9F04F2DED028B85B0EFF30583DBB212
:1006C000103B9A0818BF01224FF0010103F0030B01
:1006D00018BFAF4DAF4B08BFAF4D0BEB820253F8C5
:1006E000226001FA0BF205F541539FEDA78B0192B1
:1006F0005A602FE0B3881C0440F19380B379002B3B
:1007000040F0DD80B6F90820002AC0F21E8173692E
:1007100002EB420203EBC203D3E90247B7F1FF3F0A
:1007200008BFB4F1FF3F0ED005EB8B01AB6A0A693D
:10073000D21AE31A934205D301232A6A03FA0BF370
:10074000134200D10C61284600F036FBA042B941AB
:10075000C0F2FB80B6F90830019A002B0093EA63DF
:10076000C8DBD6F8148003EB4309284608EBC90719
:10077000D7E9024A00F020FBA04271EB0A01B9DB85
:10078000BAF1000FC0F2C380D7E90431834A934223
:1007900000F0ED807A88B6F9080092B242EA004093
:1007A000984702460B4652EA030100F0B080002B46
:1007B00080F2D180B4EB020E6AEB030A38F93930CB
:1007C000C7E902EA002B95DB716903EB430201EBF9
:1007D000C202D2E90270BE457AEB000C4FEA430236
:1007E00088DBB4462CF8083F06E003EB430001EB3E
:1007F000C0005A00D0E90270BE451A447AEB0000EE
:1008000001EBC20404DB31F93230A446002BECDAF0
:1008100028F83930009BACF80030B3881C043FF551
:100820006DAF3369EFF3108272B6D3E8CF0F0121B9
:100830000028FAD1C3E8401F0028F6D1BFF35F8F2C
:100840004FF6FF74B0880023316900B2B480C1E86C
:100850008F3F82F310889842FFF650AF0746A946B3
:10086000746906F1080807EB470E04EBCE03D3E9E1
:100870000250B6F90830C446002B13DBB24600978D
:1008800004E034F936309446002B09DB03EB4306D1
:1008900004EBC602D2E90271BD4270EB0101F0DA4D
:1008A0005646009FACF8007034F93E7024F83E3094
:1008B000002FD8DAB3794D46002B3FF423AF002345
:1008C000B371B6F9083006F10808581C3DD01A4635
:1008D000776903E08046591C3FF416AF03EB4301F0
:1008E00007EBC100B0F802C01C461CF4004F9E4646
:1008F00037F93130EED0944280ED028B05D0A8F864
:100900000030328927F8312034817246E3E738F825
:10091000393033813369EFF3108272B6D3E8CF0FE9
:1009200001210028FAD1C3E8401F0028F6D1BFF307
:100930005F8F7388316928F83930009B73800023FA
:10094000C1E88F3F82F31088D4E640BF05B0BDEC0C
:10095000028BBDE8F08F2846CDE9022300F02CFA87
:10096000029A039B10EB020E43EB010A26E70846AE
:100970000B69029198470028C9D00299D1E9002358
:1009800011E700BFAFF30080FFFFFFFFFFFFFFFF96
:1009900000800B408C12002000000B40B1060010BC
:1009A0002DE9F84F364C25692DB1BDE8F84F0A21E5
:1009B0003448FFF731BEDFF8E4800321404600F001
:1009C000E9F90326C4F80C80FFF7A0FD4FF0504C66
:1009D0002D4B267003442361DCF800300F21637037
:1009E000636961801D834FF00405A3F878504FF0D0
:1009F0000505A3F890504FF00605A3F8A8504FF056
:100A000007050E214FF6FF7208274FF00A0EA3F8D4
:100A1000C0504FF001094FF00C0C4FF0020B4FF09B
:100A2000090A0D204FF00B05A3F868111749A280A1
:100A3000A3F808E1A160A3F848B0A3F8F0A0A3F8D8
:100A40002051A3F838C1A3F85001A3F83090A3F8BF
:100A50006060A3F8D8701A800D4B3046C8F820703B
:100A60000C49DC60FFF7A8FD49463046FFF78EFDD4
:100A7000094B0A211F640348BDE8F84FFFF7CCBDBE
:100A80002409002040130020F0110020FFFF100077
:100A90008C120020B106001000200B4000000B401B
:100AA0000146F0B50069EFF3108772B6D0E8CF5F6A
:100AB0000124002DFAD1C0E8454F002DF6D1BFF337
:100AC0005F8FB1F902E04C690EEB4E0CBEF1000FE6
:100AD0004FEACC05086904EBCC0C3CDB665B4E802E
:100AE0000026C0E88F6F87F31088BCF80200CCE9BD
:100AF00002230130C0F30E00012838BF0120059BFE
:100B0000ACF80200CCF81030069B40EA0E40CCF85E
:100B100014300B69EFF3108272B6D3E8CFCF012700
:100B2000BCF1000FF9D1C3E84C7FBCF1000FF4D148
:100B3000BFF35F8F8B886353A1F804E00B69C3E8B0
:100B40008F6F82F310880122CB68097803F5015377
:100B50008A405A60F0BD0023C0E88F3F87F31088B9
:100B60004FF0FF30F0BD00BF03464089B0EB214F8E
:100B700037DD58690A1402EB420210B500EBC200DF
:100B80001C69EFF3108C72B6D4E8CFEF0122BEF1EE
:100B9000000FF9D1C4E84E2FBEF1000FF4D1BFF31E
:100BA0005F8F428889B292B28A4207D000221B69C5
:100BB000C3E88F2F8CF31088002010BD42F4004250
:100BC00042800121002218699971C0E88F2F8CF3AF
:100BD00010881C78DA68084602F50153A140596074
:100BE00010BD0020704700BF2DE9F04182B00446DF
:100BF0000E4600F0E9F84FF0FF326FF00043241882
:100C000046EB0106A24273EB06013CBF14461E46AA
:100C1000A51F46F1FF37AC4276EB07033CBF00252A
:100C20002F4600F0D1F8281A67EB010C01287CF15F
:100C3000000C06DA2046314602B0BDE8F04100F073
:100C4000CDB800F0C1F8854267EB010100290ADB4D
:100C50000021174B2A46009316483B460191FFF7A7
:100C60001FFF0130E6D04FF0000C134A1349536ABE
:100C70009F4204D8906AA842DCD29F42DAD10B6826
:100C8000EFF3108072B6D3E8CF8F5FF0010EB8F1AA
:100C9000000FF8D1C3E848EFB8F1000FF3D1BFF36C
:100CA0005F8F0B68C3E88FCF80F3108820BFDEE72B
:100CB000710600102409002000000B4040130020A2
:100CC0002DE9F04306460D4683B0EFF30584E4B208
:100CD0003CB12D4B5A6AAA421CD2002003B0BDE899
:100CE000F0832A4FD7F80C9097F80080484600F020
:100CF00063F808F1040859F828301B1A301A65EB1C
:100D00000101984271F1000110DB20BF1E4B5A6AAD
:100D1000AA42E2D314BF012400249B6AB34234BF29
:100D2000204644F0010003B0BDE8F08300F04CF829
:100D3000864265EB0101002914DB154B3846CDE9ED
:100D4000003432462B46FFF7ABFE011E0ADD0E4B88
:100D50005A6AAA4216D39B6AB34211D30B48FFF7D3
:100D600003FFB6E7084B5C6AAC42B6D3641B18BFFE
:100D700001249B6AB34234BF204644F00100ADE732
:100D8000AA42EBD120BFE9E700000B402409002074
:100D90007106001010B4054B054C064AA04214BF62
:100DA0001846581C5DF8044BFFF784BB281200203E
:100DB00000800B40246000100346416A0A46986A8E
:100DC000596A8A42FAD17047034B596A0A46986AAF
:100DD000596A9142FAD1704700000B40074A536AA2
:100DE0009942FCD8994207D1044B02E05A6A9142D9
:100DF00002D19A6A9042F9D8704700BF00000B40B8
:100E000000EB400C4FEA8C0C0CF1804C0CF5803C54
:100E1000F0B51646DCF80420051FB2F5803F38BF58
:100E20004FF48032EDB238BFCCF80420012D2AD91E
:100E30004FF40067254C0CF54052176054F8202001
:100E4000B2B9DCF80020012D82EA461202F0E0027D
:100E50000CF5805632602AD94FF4006144F82030F6
:100E60004FF480330CF500521160CCF80430F0BD23
:100E70006769B7FBF2FE0EF1010E0EEB4E0EBEF1EE
:100E8000030EFCD2DDE70129D2D103240CF5405238
:100E90001460DCF80820D207FBD5DCF800200B4CEE
:100EA00082EA461202F0E0020CF58056326001221E
:100EB000DCF800504D4005F00305356002FA01F101
:100EC000DCF808200A42FBD0C6E700BF2C12002045
:100ED000014B53F8200070472C12002070B4039D82
:100EE00004682D0345EA03451B4B002CB3FBF1F3CB
:100EF000B2FBF3F61FDB194A194B904214BF4FF4B3
:100F000080424FF40042174C1A6003F580531A6078
:100F1000A36832EA0303FBD1212200F540530433D6
:100F2000016086601A600268002AFCDA0822C56047
:100F30001A6070BC7047036803F03F038B42DAD13C
:100F40008368C3F30B03B342D5D1C36803F4EE2324
:100F5000AB42D0D1EDE700BF001BB70000800540D9
:100F60000020024000000240012300EB400080000E
:100F700000F1804000F5841041600360704700BFBD
:100F80000023DB8A002242E800F2520201D4102141
:100F900018470421184700BF034AD2F82838002B0D
:100FA000FBD0BFF35F8F704700000E400021044B61
:100FB000044ABFF35F8F43F8041B9342F9D1704793
:100FC0000C080E402C080E4010B44FF48D704FF4F6
:100FD0002A64064A064B07491460D06019605368BA
:100FE000002BFCDA5DF8044B704700BF0080044022
:100FF00000A0044000B0FA00704700BF08B50148E7
:10100000FFF740FA4860001038B5054C054DAC427A
:1010100004D254F8043B9847AC42FAD338BD00BF21
:10102000885F0010C85F001010B40748074C084BD9
:10103000084A094904601A608B6832EA0303FBD14D
:101040005DF8044B704700BF002002407F3BEFEF8C
:1010500000300240F6FFF30300000240044BDB6C5B
:10106000B3F5004F03D14FF48022024BDA6470478E
:1010700000001150002011504FF0E022044BD2F834
:10108000881D0B43C2F8883D10EE3004704700BF46
:10109000030330006FF06041044B054A1960936808
:1010A000DB4333F06043FAD1704700BF00300240A9
:1010B0000000024010B545F25320FFF761FFBDE884
:1010C000104003460420184710B545F25320FFF79F
:1010D00057FFBDE81040034601201847FFF72ABA22
:1010E00010B5054B054C4FF488721846A16804F002
:1010F00043FDA06010BD00BF0000002000ED00E037
:10110000002370B52B4C82B0C4F88430FFF75CFF2D
:101110000122294BDA63636C012BFCD10321264A9F
:10112000244B11639C6B012CFCD102260525214622
:101130000523224A22480096FFF7D0FE21462B467F
:10114000204A21480095FFF7C9FE002204203146BD
:101150001E4BFFF755FE2146284600221C4BFFF789
:101160004FFE0022082011461A4BFFF749FE0022CD
:1011700009201146174BFFF743FE002206201146B7
:10118000134BFFF73DFE0022114B07201146FFF7DE
:1011900037FE0420FFF79CFE00240F4BA3FB003515
:1011A000AD0CE0B229460134FFF7DEFE062CF8D183
:1011B00002B070BD0000014000300140002F6859AE
:1011C00000000540008C864700800540001BB700EA
:1011D00080D1F008006CDC0283DE1B4386B003B4D0
:1011E00051FC0804CDE9020151FC0904CDE90401D8
:1011F00051EC0A04CDE9060103BCF047BDE80050FC
:101200004EEC00C4BDE800504EEC01C4BDE80050F7
:101210004EEC02C400BD000000B5FFF7DFFF02E0A6
:1012200010FE30F4F8D441EC100443EC112400EE2D
:10123000010410EE010480EE200451EC100470470C
:1012400000B5FFF7CBFF02E010FE30F4F8D441EC1C
:10125000100443EC112400EE010410EE210480EE92
:10126000200451EC3004704700B5FFF7B7FF02E0EF
:1012700010FE30F4F8D410B541EC100443EC112406
:1012800051EC040453EC0524A0FB024C5FF0000E6B
:10129000E0FB03CEE1FB02CE4CEC20440024E1FB5A
:1012A00003E444EC30E480EE200451EC5004BDE84B
:1012B0001040704700B5FFF791FF02E010FE30F4D8
:1012C000F8D441EC100443EC112451EC2104A0FBB0
:1012D00001126FEA820252FB100052FB12F252FB23
:1012E0001000A0EBD07C53EC04245CFB13F153EC16
:1012F0001524A1FB022001FB030053EC4424A2EBC4
:10130000000050FB1CF24FEA111312EB017043EB8B
:10131000E27140EA515020EA915020F0070053EC6E
:101320007524A0FB023C53EC752400FB03CC01FBAD
:1013300002CC53EC0424ACEB824C40EA5C70A0F18C
:10134000010041EC400480EE200451EC7004704731
:1013500000B5FFF743FF02E010FE30F4F8D441EC93
:10136000100480EE220410EEB204704700B5FFF7BF
:1013700035FF02E010FE30F4F8D440EC700400EECB
:10138000010410EE210480EE200451EC300470477B
:1013900000B5FFF723FF02E010FE30F4F8D440EC74
:1013A000600400EE010410EE210480EE200451ECF4
:1013B0003004704700B5FFF711FF02E010FE30F473
:1013C000F8D441EC800400EE010410EE010480EE3C
:1013D000400410EE1304704700B5FFF7FFFE02E073
:1013E00010FE30F4F8D441EC800400EE010410EE5D
:1013F000010480EE400410EE3304704700B5FFF79F
:10140000EDFE02E010FE30F4F8D441EC100443ECA1
:10141000112400EE010410EE3004C0F30070704798
:1014200000B5FFF7DBFE02E010FE30F4F8D443EC29
:10143000102441EC110400EE010410EE30F48CBFD6
:1014400001200020704700BF00B5FFF7C7FE02E093
:1014500010FE30F4F8D443EC102441EC110400EEFB
:10146000010410EE30F42CBF01200020704700BFB3
:1014700000B5FFF7B3FE02E010FE30F4F8D441EC03
:10148000100443EC112400EE010410EE30F42CBFE4
:1014900001200020704700BF00B5FFF79FFE02E06B
:1014A00010FE30F4F8D441EC100443EC112400EEAB
:1014B000010410EE30F48CBF01200020704700BF03
:1014C00010B5044604F008F828B10346034A234443
:1014D000934200D810BD0248FEF7D4FF0000082058
:1014E0005460001004F000B89A4238BF8854704726
:1014F000704700BF2DE9F04F83B09946DDE90DAB91
:101500000F9B884611469A07074616D1DA453AD20C
:101510000C460D46ABEB0A060E4422464B464146AE
:1015200020200134B847B442F7D12946BAF1000F60
:1015300008D1204603B0BDE8F08F0C46BAF1000F89
:1015400010D00E4655460C9B2E449A440191721BB6
:101550004B46013D41461AF8010D3446B847002D6F
:10156000F5D101990F9B9B07E3D5651AAB45E0D9EF
:1015700022464B46414620200135B8475D4504F1DF
:101580000104F5D3D5E70C46BAF1000FD9D1D0E765
:101590002DE9F04F0F9FDDF8248017F0020F0A9C11
:1015A0009DF82CA00E9DDDE90C9644D1F5BBB4420C
:1015B00041D207F0010B04F1FF3C4FF0300EC44460
:1015C00004E00134A6420CF801EF01D9202CF8D137
:1015D000BBF1000F00F08880A5422CD904F1FF3C3C
:1015E0004FF0300EC44404E00134AC420CF801EF7B
:1015F00021D0202CF8D117F0100F0ED017F4806FE7
:1016000054D1A64263D0A54261D0B9F1100F50D099
:10161000B9F1020F56D0202C29D12024CDE90B5747
:10162000CDE90984BDE8F04FFFF764BF17F0010B67
:1016300034D1B442BFD317F0100F1ED017F4806F0F
:10164000E3D1002CDDD1B9F1100F63D0B9F1020F55
:1016500077D0302488F800400124BAF1000F11D16E
:101660007E0748D52B2608F804600134D6E72646C5
:1016700001344FF0300C08F806C0202CCDD0BAF160
:10168000000FEDD02D2608F804600134CDE90B578A
:10169000CDE90984BDE8F04FFFF72CBFBAF1000F88
:1016A00030D0B44205F1FF3585D395E7B9F1100F7D
:1016B000B3D1BE063BD5202CAFD0582608F8046025
:1016C0000134A8E7202CA8D02646013407E0661E86
:1016D000B9D0B9F1100F36D0B9F1020FC9D14FF01E
:1016E000620C08F806C096E717F0100FC5D017F483
:1016F000806F86D089E73E0790D5202608F80460E1
:1017000001348BE717F00C0F00D0013DB442FFF419
:1017100052AF61E7BC0612D4782488F80040302428
:1017200088F801400224BAF1000F99D0AAE7202CD2
:101730003FF473AF782608F8046001346BE758244F
:10174000EBE76224E9E717F0200FA4F1020C04D0C4
:101750004FF0580E08F80CE08BE74FF0780E08F8C1
:101760000CE086E700B9704701F03EBB00000000C6
:101770002DE9F04F97B09DED207BDDE9225B074618
:10178000884651EC170B249C99460C920B46024656
:101790008DED047B0794FFF735FE002840F0F481BF
:1017A000DDE904014FF0FF326FF48013FFF73CFED8
:1017B000002840F01B81DDE904014FF0FF32AC4B03
:1017C000FFF76EFE002840F0EE80DDE90401A4A3DF
:1017D000D3E90023FFF764FE002840F0D380DDE961
:1017E0000401A1A3D3E90023FFF71EFE002840F067
:1017F000C980DDE9040100220023FFF715FE00285F
:1018000040F0E88023460D9013F4806F08BF062552
:1018100030212B460EAAA5F1200605E0013BB3427C
:1018200002F8011B00F09381092BF7D81E46ED1A30
:10183000DDE90401FFF7C2FD8E4B044603EBC6034E
:1018400093ED007B8DED087BFFF794FD02460B4680
:10185000DDE90401FFF7F8FCDDE90823FFF708FDE7
:1018600002460B46CDE90A23FFF7BAFD8246FFF791
:1018700093FD02460B46DDE90A01FFF7E5FC02464F
:101880000B46CDE90A2300227B4BFFF709FE002817
:1018900000F0FE800AF1010A5046FFF77DFD024686
:1018A0000B46DDE90801FFF7D3FD10B14FF0000A48
:1018B0000134002E00F0FD80681E0EABDFF8CCC1B5
:1018C00018440FE0ACFB0A21C90801EB8102AAEB26
:1018D00042023032BAF1090F00F8012F40F21C81A8
:1018E0008A461D46202D05F1010306F1FF36E9D198
:1018F0002025691E0EAB6148194410E080FB04628C
:10190000C3EBA20303EB8302A4EB420404F1300215
:1019100001351C4601F8012F002B00F0EB80202D33
:101920004FEAE473EAD1079B03F00303012B18D1BC
:10193000BBF1000F15D00D9B002B00F00A810BF1BD
:10194000FF3BBBF1200F0CD96B1E0EA930220B44BC
:1019500005E001355D4503F8012F80F0D180202D91
:10196000F7D1079B0EACCDE902B341464B46384652
:101970000C9A01950094FFF7BDFD8246504617B0C2
:10198000BDE8F08F079B9DED047BCDE923B3414675
:101990004B4638460C9A8DED207B229517B0BDE85A
:1019A000F04F00F045B9610723464CBF04230323E1
:1019B0004146219338464B46079A48BF304CCDE903
:1019C00022B258BF2F4C0C9A209417B0BDE8F04FAC
:1019D000FFF790BDDDE9042300200021FFF734FC70
:1019E0000123CDE904010D9323460DE723469C070F
:1019F00040F0AA80BBF1040F40F2A6800C9B1D466C
:101A00001C1F04EB0B0A2A464B4641462020013599
:101A1000B847AA45F7D155461B4C261F14F8010DAF
:101A20002A464B464146B847B44205F10105F5D177
:101A3000079B0AF1040A9807A0D50C9CAAEB0403A3
:101A40009B459BD952464B46414620200AF1010A4C
:101A5000B847AAEB04035B45F4D38FE7AFF30080EC
:101A60000000000065CDCD410000000065CDCDC176
:101A7000FFFFEF7F306100100000E03F67666666A1
:101A8000A8600010B0600010BC600010CDCCCCCCC1
:101A90000022DDE90A01634BFFF7C6FC00287FF452
:101AA00008AFBAF1000F6AD10AF1010A002E7FF4E3
:101AB00003AF2046FFF75EFC02460B46DDE904015A
:101AC000FFF7C2FB02460B46CDE904230022554B2B
:101AD000FFF7AAFC00287FF40CAFDDE90401002227
:101AE000504BFFF7DDFC00287FF403AF013424F0F6
:101AF0000104FEE6079B03F00303012B00F0828044
:101B0000202D3FF42EAF0D9B7BB32D220DEB050353
:101B100083F83820013524E7202B3FF4E9AE0EAAE4
:101B200015441E44302204E0202B05F8012F3FF419
:101B3000DFAE9E4203F10103F6D12E220DEB060328
:101B400083F83820751CD4E6DDF830A063E7202543
:101B50006EE6079B13F00C0F50D00BF1FF3BAB452B
:101B60003FF6F2AE202D3FF4FCAE079B5A0701D59D
:101B70002B22CBE71B077FF5F4AE2022C6E71AF035
:101B8000010F3FF496AE8FE7A60734D1BBF1030FE8
:101B900031D90C9B1D46DC1E04EB0B0A2A464B4632
:101BA000414620200135B8475545F7D155461E4CD2
:101BB000E61E14F8010D2A464B464146B847A64298
:101BC00005F10105F5D1079B0AF1030A9D077FF591
:101BD000D5AE0C9CAAEB04039B457FF6CFAE5246D4
:101BE0004B46414620200AF1010AB847AAEB0403FC
:101BF0009B45F4D8C2E6DDF830A0D7E7AB453FF609
:101C0000A3AEAEE6BBF1000F3FF47AAF0D9B002B05
:101C10009FD00BF1FF3B5D45FFF496AE202D7FF486
:101C200074AF9EE60000E03FB760001000000000C7
:101C30002DE9F04F9FB02A9EDDE9284507469346DF
:101C40000891099322462B46204629460E96DDE947
:101C50002BA6FFF7D7FB002840F0BE802046294680
:101C60004FF0FF32784BFFF71BFC002840F0B480A8
:101C7000204629464FF0FF326FF48013FFF7D4FB64
:101C8000002840F0A9802046294600220023FFF7C3
:101C9000CBFB002840F0D581CDE90A45DDE90A23D8
:101CA0009046994606F4006216F480630F921393EF
:101CB00040F0A18058EA090340F0CA80002A40F0B1
:101CC000E38106230E9316F00202109240F0D481B5
:101CD0005346042B38BF04230C920422043B129277
:101CE0000F932046294600220023FFF79DFB002882
:101CF00040F0F3819DED0A7B0F9B5A4603930E9BA8
:101D00008DED007B029326F4006304933846099B13
:101D10000899FFF72DFD024616F0200F099B089940
:101D20000CBF6520452002F10108B8470C9A129BB0
:101D300016AC5D1E82EAE273A3EBE273D10F0026BC
:101D400022469946DFF804C101E0202E10D0CE468D
:101D5000ACFB0930C00800EB8003A9EB4303303330
:101D6000BEF1090F814606F1010602F8013BECD8ED
:101D70000523002006930A2305950094099D089CDD
:101D80004246CDE90330CDE901612B462146384674
:101D9000FFF7FEFB109A8046D2B1A0EB0B06B245CE
:101DA00016D90BEB06022B46214620200136B847F8
:101DB000B245F6D80BF1FF335344CBF10102A3EB4C
:101DC00008034244924538BF002308F101089844B3
:101DD00040461FB0BDE8F08F5A463846CDE9284549
:101DE000CDE92BA60E9C099B08992A941FB0BDE84B
:101DF000F04FFFF7BDBC58EA09032BD1002A3FF48E
:101E000062AF00230C930E9B0C9A934200F3B981AE
:101E10004FF000082046294600220023FFF704FB6C
:101E2000002840F013819DED0A7B26F4006646F4FD
:101E300080668DED287B5A463846CDE92A8A099B73
:101E400008992C96D2E700BFFFFFEF7FCDCCCCCC1A
:101E500006230E93C9F30A50A0F2FF30FFF78AFA67
:101E6000C1A3D3E90023FFF703FAC1A3D3E90023F9
:101E7000FFF7D6F9C9F31309CDE90C0149F07F51F9
:101E800040460022B24B41F44011FFF7DDF9A4A314
:101E9000D3E90023FFF7ECF902460B46DDE90C011C
:101EA000FFF7BEF9FFF78AFA0C90FFF763FA9EA3DB
:101EB000D3E9002380468946FFF7DAF90022A54BD3
:101EC000FFF7AEF9FFF77AFA034649464046129308
:101ED00097A3D3E90023FFF7CBF9804612988946F0
:101EE000FFF748FA94A3D3E90023FFF7C1F90246AC
:101EF0000B4640464946FFF7A7F902460B46804687
:101F00008946FFF7B5F942464B46CDE910014046F8
:101F10004946FFF785F90022CDE91401DDE91001FA
:101F20008D4BFFF7CBF900228C4BFFF779F9024676
:101F30000B46DDE91001FFF7C1F90022884BFFF7DE
:101F40006FF902460B46DDE91001FFF7B7F942468B
:101F50004B468046894600204FF08041FFF774F9D8
:101F600002460B4640464946FFF75AF902460B46E1
:101F7000DDE91401FFF7A2F900227A4BFFF750F9CF
:101F8000129B002203F2FF3C4FEA0C53FFF770F95B
:101F900080468946DDE90A0142464B46FFF744FA8E
:101FA00050B10C9B4046013B49460C9300226B4BC1
:101FB000FFF784F9804689460C9A43466332C62A65
:101FC00006F00202109249460F9A2CD8002A5ED0E1
:101FD000042212920B433FF416AFDDE90A0158A325
:101FE000D3E90023FFF748FA48B1DDE90A0156A317
:101FF000D3E90023FFF718FA00287FF404AF0E9B03
:10200000002B50D0139A002A7DD0013B0E93129BD7
:102010009A4505D9109B002B00F0AE800223109347
:1020200000230F9344E022BBBAF1050F4FD906F00D
:102030000203002B49D105231293AAF105030F9344
:102040003AE005F100430A940B9327E626F4006674
:1020500046F4806638462C96DDE90A67344607F177
:1020600000455A46CDE92A8ACDE92845099B0899B9
:10207000BCE605221292ADE700230222CDE90F3221
:1020800004220C9312922CE64FF00508C2E6BAF136
:10209000040F1FD9109B002B78D104231293AAF1AF
:1020A00004030F9304E0129B9A4531D80E9B0F93C3
:1020B0000C9B002B3FF415AEDDE90A0142464B466E
:1020C000FFF7FCF8CDE90A010BE602231093052384
:1020D0001293F1E704231293EAE7DDE90A45A046EB
:1020E0000F9B05F1004903930E9B5A46029326F479
:1020F000006304933846CDE90089099B0899FFF7EE
:1021000037FB024608E6129B9A4544D80F92CFE768
:10211000109B8BB30E9B0F9302231093C8E700BF55
:1021200061436F63A787D23F71A379094F930A4038
:102130001655B5BBB16B0240EF39FAFE422EE63FB1
:102140002D431CEBE2361A3F0000000080842E4134
:102150000000F83F0000E03F00002C400000244059
:10216000000018400000F03FFB799F501344D33F1C
:10217000B3C8608B288AC63F129BAAEB03030F9358
:1021800096E7A3EB020808F1FF3843E60423129315
:10219000022310938CE7109B002BEDD002230F92AB
:1021A000109385E72DE9F04F9BB0249C954D0A9440
:1021B000954CB1F1000A18BF834625601878934CFE
:1021C000914608BFA3460993002800F093824FF080
:1021D00000080AE042464B46514608F10108D8473C
:1021E000099B1878002800F0CE80099B252803F170
:1021F00001030993EED11C460023224612F8010B7D
:10220000A0F1200110290AD8DFE801F04009093CBB
:102210000909090909090938093409093000A0F137
:1022200030010929099440F28A802A2800F0F080C0
:1022300000252E2800F096800026A0F168011229C2
:102240002DD8DFE811F049012C0043012C003801A2
:102250002C002C002C002C002C002C002C00270023
:102260002C002C002C002C002C002700144643F0DE
:102270000103C2E7144643F00203BEE7144643F0ED
:102280000403BAE7144643F01003B6E7144643F0DC
:102290000803B2E70999487843F48073013267284C
:1022A00009927ED8242840F2C180A0F12502422A5A
:1022B00000F2BC80DFE812F05001BA00BA00BA00A8
:1022C000BA00BA00BA00BA00BA00BA00BA00BA003E
:1022D000BA00BA00BA00BA00BA00BA00BA00BA002E
:1022E000BA00BA00BA00BA00BA00BA00BA00BA001E
:1022F000BA00BA00BA00BA00190137011901BA00D0
:10230000BA00BA00BA00BA00BA00BA00BA00BA00FD
:10231000BA00BA00BA00BA00BA00BA00BA00BC01EA
:10232000BA00BA00BA00BA00BA00BA00BA00BA00DD
:10233000BA00BC015801BC0119013701190100257F
:1023400000E0013205EB850500EB45051078303DD6
:10235000A0F130010929F4D92E28099202F10102D5
:102360007FF46AAF099943F4806348781146A0F17D
:102370003006092E40F221812A2800F02F8109928F
:102380000026013259E74446C14501D809F1FF381A
:102390004B46424651460020D84720461BB0BDE878
:1023A000F08FA0F16902D2B20F2A3FD8012149F281
:1023B00041079140394040F0F3800A2A3DD0072A76
:1023C00034D10A9D55F8042B002A00F0138143F004
:1023D000210012AB1F460B9303E0202900F014816B
:1023E0001A4602F00F042346092C94BF30333733CA
:1023F0000F2A07F8013B01F101014FEA1213ECD853
:1024000002E100BFA521001068120020F1140010A5
:102410000A99099851F8045B4078002DCDE909210B
:10242000BCBF43F002036D42013202E742464B4615
:10243000514608F10108D847D2E60A99002E51F812
:10244000047B18BF3246387808BF4FF0FF320028AF
:1024500000F07B83BC18A4463A4604E012F8014F12
:10246000002C00F03F819445F8D16446E41B5A05E6
:1024700040F12281B44228BF344613F0020300F039
:1024800088820223CDE90A5142461D46464408E0AF
:102490004B465146D84717F8010F08F1010810B113
:1024A00042464645F4D12B460B990A9D002B40F03D
:1024B00041810A9194E6099948786C287FF4ECAE42
:1024C0000A46887843F440730332E8E6099943F4F6
:1024D000007348780132E2E609994878682800F0EC
:1024E000038143F080030132D9E6672800F0D980E8
:1024F000472800F0DC80452800F0DB80CDE903535D
:102500000A9B0296073323F007031C464246F4E871
:1025100002674B4651465846CDE900670A94FFF7DB
:1025200087FB80465CE6462808BF43F02003CDE9E0
:1025300003530A9B0296073323F007031C464246C7
:10254000F4E802674B4651465846CDE900670A94C5
:10255000FFF70EF9804643E642464B46514625209A
:1025600008F10108D8473BE60A9A990702F10404EA
:1025700008F1010640F1C68010784B4642465146AC
:10258000D847012D88BFA84440F2BD8132464B4652
:10259000514620200136D8474645F7D10A941FE618
:1025A0006F2800F0818040F24882782800F0908106
:1025B0000A2723F01003BC4641E0002606EB8606FE
:1025C00000EB4600A0F1300611F8010FA0F1300237
:1025D000092AF3D90A46099101322EE6DDE90921DB
:1025E00051F8046B9078023209920A91013226EA7E
:1025F000E67622E623F0100013F4806240F021001A
:102600003FF4E7AE12AB0B930B9B069000930823AD
:102610001020059300234246CDE9023001914B463C
:10262000514658460496FEF7B3FF0A958046D7E513
:10263000582862D0622840F08F800227BC4613F4ED
:10264000806000F0DD8023F00D0313F4007240F091
:1026500081810A990F1D13F4807140F037825C0666
:102660000A9A40F13B811278002A40F04E8123F013
:102670001003002800F04981114612AA0B92CDE9FF
:102680000553CDE903C601910B9B424600930023FD
:102690005146029358464B46FEF77AFF0A9780460A
:1026A0009EE543F4006329E70827BC46C7E743F4E7
:1026B000006343F0200321E713F0020300F08E8152
:1026C00002230A951E460D4642464B465146D847C0
:1026D00017F8010F08F101080028F5D12946334603
:1026E0000A9DE3E6D41BC2E60A46887843F0C0039D
:1026F0000332D4E50446804646E6102743F0200323
:10270000BC469CE7012D40F2F880464608F1FF37B1
:102710002F4432464B46514620200136D847BE4210
:10272000F7D10A9B3246187851464B46D847A84401
:102730000A9455E54646A5427FF6BBAEA844A8EBF1
:1027400004080C4632464B46514620200136D847F5
:102750004645F7D12146ACE613F4806200F0BB8019
:102760004FF4806223F0110C1CF400770A9B4AD1CD
:102770001CF4807003F1040440F034811CF0400F1D
:1027800040F0A3801CF0800F00F0D381B3F900105B
:1027900081EAE177A7EBE177BFB2CB0F002900F028
:1027A00056813A4612A90F46DFF8D8E30B910A93F7
:1027B0000C9501E020280FD01546AEFB0213DB0874
:1027C00003EB8301A2EB41013031092D1A4600F1E0
:1027D000010007F8011BEDD80A9B0C9DCDE9055CB3
:1027E000CDE9010304960B9B424600930A23514610
:1027F000039358464B46FEF7CBFE0A948046EFE41F
:1028000023F00C0321E7073323F00703194608469A
:102810005B6850F8081BDF0F0A9051EA030062D191
:10282000002A40F09F811346114612AACDE90C758B
:1028300000201546CDE90E68DFF848E30B9201E071
:1028400020282DD05A1842F10002AEFB027828F061
:10285000030707EB9807D21B1E469B1A61F100077E
:102860000C464FF0CC3101FB03F10EFB0711A3FB2B
:102870000E731944052307F00108A8FB03389B18C1
:102880000A2E03F130034FEA570774F1000405F8EC
:10289000013B00F1010047EAC1734FEA5101CFD279
:1028A000DDE90C75DDE90E680B9B424600930A23B7
:1028B000CDE9055CCDE90107049603934B465146EB
:1028C0005846FEF765FE80468AE419780F4664E7AD
:1028D0001027BC46B3E623F0100C45E71C064CBF9E
:1028E00012881268C0E60A46191E01DB13469CE7EF
:1028F0005242134661EB410197E71346514618785F
:1029000042464B46D847B04648E613F0200F14BF66
:102910004120612012ACA6460B940A93A0F10A0450
:102920000C9502E0202912D02A46B2FBFCF50CFBE4
:102930001520C3B2092803F130008ABF1B19C3B2A6
:10294000DBB262450EF8013B01F10101EAD20A9BBC
:102950000C9D94E60A9A073222F00702516852F859
:10296000084B8E460A9254EA010276D123F01003F6
:10297000002872D00022114612AA0B92CDE905530D
:102980000B9B424600930023CDE903C601910293BD
:1029900094E7A54298BF01347FF674AD4FF480638D
:1029A000CDE90A7505EB08021F460D46141B424689
:1029B0004B465146202008F10108D847A045F6D1E2
:1029C0003B460A9F294638780B9D6C1C00283FF433
:1029D00070AD002B3FF475AE002353E5A542DFD860
:1029E00001346EE61968CB0F002900F0A88081EA57
:1029F000E172A2EBE17212A90846DFF888E10B91BF
:102A00000A930C9501E0202F0FD01546AEFB021360
:102A1000DB0803EB8301A2EB41013031092D1A469B
:102A200007F1010700F8011BEDD80A9B0C9DCDE9C9
:102A3000055CCDE901730496D5E6692823F0100CF6
:102A400040F08C8013F480623FF48EAE88E6002A5A
:102A50003FF4A8AE12AA0B92C0E613F0200F14BFE9
:102A600041226122002012A90A3ACDE90E68CDE97F
:102A70000C35CDF844B006468846754693460B9112
:102A8000CDF840C003E0202E17D004460D4629465D
:102A90003A460023204603F06BFAD2B2092A02F12B
:102AA000300388BF02EB0B03BC42DBB275F10005BB
:102AB00008F8013B06F10106E5D23146DDE90C35A7
:102AC000DDE910CBDDF83C800E9E57E70A990968D6
:102AD00051B923F0100338B112A90B91CDE9055378
:102AE000CDE903C60192CFE513F0200F14BF4120BA
:102AF000612012ACA6460B940A93A0F10A040C952F
:102B000002E0202A12D02946B1FBFCF50CFB15107F
:102B1000C3B2092803F130008ABF1B19C3B2DBB26C
:102B200061450EF8013B02F10102EAD20A9B0C9DBD
:102B3000D4E7196881EAE177A7EBE1772DE6002A6F
:102B40003FF459AF12AA0B9271E713F480640DD0D1
:102B500013F0020412D004464646ECE50A27634609
:102B6000BC466CE512AB00200B939DE613F002030C
:102B70007FF4E0AD002D7FF413AF9AE4002D7FF4D5
:102B80000DAF96E4CDCCCCCC0EB410B585B007AC6F
:102B900054F8043B01464FF0FF320094044803947C
:102BA000FFF700FB05B0BDE8104003B0704700BF61
:102BB000E914001010B5094B84B01C684CB10346F1
:102BC00000914FF0FF3203A90548A047012004B04F
:102BD00010BD00F04BF9204604B010BD6812002073
:102BE0006517001000BEFDE7074A0346106838B1BC
:102BF000064903448B428CBF4FF0FF30136070478F
:102C0000034908461160F3E7601200200000082025
:102C10001814002008B5FFF7E5FF00BF38B5064CD3
:102C2000064DFEF7F1F9AC4204D254F8043B984744
:102C3000AC42FAD338BD00BFC85F0010D05F0010AF
:102C400003680846114618472DE9F0411546427DB4
:102C500007468846002A46D0002D1DDD0B780A2B3A
:102C600023D0012D4FF0000C18D04646012416F851
:102C7000012F21460A2A04F1010422D0A542F6D1EF
:102C800065450BDC08EB050313F8013CA3F10D03CC
:102C9000B3FA83F35B093B75BDE8F0813B68A5EBB4
:102CA0000C0108EB0C009847ECE7037D002BD8D112
:102CB000036802210F489847012DE3D04FF0010C23
:102CC000D3E716F8013C0D2BD8D08C4508EB0C004F
:102CD000A1EB0C0101DA3B689847022105483B68EB
:102CE0009847A446CAE7294640463B68BDE8F041FC
:102CF000184700BF806100102DE9F04782B00D46F3
:102D000091461C460646FEF75FF84FF0FF3C6FF019
:102D100000472E4A821841F10003944577EB0301E6
:102D20003CBF62463B462A4803F02AF96B1C8046AA
:102D300040D00CB3274F284B1C68B4B1B9F1000F39
:102D40001CD1DFF89C9001E0246974B12368002B4A
:102D5000FAD0D9F800300BB19C42F5D120462A4672
:102D60003146B8472469002CF0D1B8F1000F26D1C4
:102D7000284602B0BDE8F087184FDCE74FF00A0A9A
:102D8000DFF85C9002E02469002CEED02368002B71
:102D9000F9D0D9F800300BB1A342F4D12A4631461C
:102DA0002046B847012220460DF107018DF807A003
:102DB000B847E8E7304602F055FF0546B9E7044852
:102DC00003F0DAF8284602B0BDE8F08740420F0071
:102DD000A80E0020492C001054120020412C001095
:102DE0005C12002000207047F0B583B006468DF8D5
:102DF0000700FDF7E9FF4FF0FF356FF00044174A79
:102E0000821841F10003954274EB03013CBF234655
:102E10002A46134803F0B4F8124B07461C689CB1CD
:102E2000114D01E024697CB12368002BFAD02B6896
:102E30000BB19C42F6D1204601220DF10701FFF7AC
:102E400003FF2469002CEFD117B9304603B0F0BD61
:102E5000034803F091F8304603B0F0BD40420F0044
:102E6000A80E0020541200205C12002038B5044641
:102E700002F0F8FE012305461A4620462946FFF7D0
:102E80003BFF084B1C682CB163682BB19847246941
:102E9000002CF9D1284638BD2469002CF4D12846ED
:102EA00038BD00BF54120020F8B504460D46EFF3BC
:102EB000108772B60C4B9B6853F82060B14204D067
:102EC0000A4B9E420BD2FEF799F8074B9B6843F8DA
:102ED0002450BFF35F8F87F310883046F8BD044B52
:102EE0009E42F2D3EFE700BF00ED00E010010010BA
:102EF0001C01001070B5002501260468002BE56652
:102F00008446616028469DF810E0E66616DD5D1E89
:102F1000616F1029FCD000B30021A84204BF8EF0DD
:102F2000010641EA462141F480712161D4F8801004
:102F3000616B490605D54FF0FF30636D8CF804E0F6
:102F400070BDA16F0029F1D021690130834202F8E0
:102F5000011BF3D0DCF80040DAE79CF8041089028A
:102F6000DBE700BF2DE9F041002701249446026809
:102F70000546D7665160D4661C1E38469DF8186019
:102F80001EDD297986F0010789027F0204F1FF3EE8
:102F900070450CBFB8464FF000081CF8013B0B43CE
:102FA00043EA08031361536BD906FCD5D2F88010AD
:102FB00049B970451CD0013084424FF00001E7D17F
:102FC0002E71BDE8F0814FF00108536D536B9B05E6
:102FD000FCD5136EB8F1000FEDD069B1CB070BD45F
:102FE00011F0080F08BF4FF0FF302E71BDE8F081DF
:102FF000002EE0D1B046E9E74FF0FF30E0E700BF38
:10300000F8B5044605200F46FDF762FF00EB570CAC
:10301000BCFBF7FC204D0CEB4C02A5FB02651F49E5
:10302000AE088F4200EB4003ACEB95052ED801F1C2
:10303000D64101F5A10101F62C01A1FB03139B0D63
:10304000013300214F2A98BF01222468B0FBFCF015
:10305000E166216804F5805781F0040101F0060162
:10306000396088BF0C49E56184BFA1FB0212920957
:103070002662C4F8A0202246012152F87C5F6B40F2
:103080009BB202F580521360E166F8BD0449A1FBD2
:103090000313DB0D0133D4E7CDCCCCCC3F420F0082
:1030A000893BE6550E4A30B4904214BF20221022CC
:1030B0000C4D0D4B0D4C2A601A60A36832EA0303D5
:1030C000FBD140F26515032402680371D3661560D5
:1030D000D3639363C2F8884030BCFFF791BF00BF51
:1030E0003C09002000200240003002400000024065
:1030F00010B49DF8044001945DF8044BFFF732BF13
:1031000010B49DF8044001945DF8044BFFF7F2BE43
:1031100070B51646026C0446856B2AB906680135FF
:103120004EB31046A56370BD8EB9406802F024FD11
:103130006368216CA2680B449342636028BF2368D4
:1031400005F1010528BF63600020A56370BDC0685C
:1031500002F012FD226CE36851429B1A2268E36080
:10316000934202D2A3680B44E360022E08D00135DB
:103170000020A56370BD806801F03CFBA660D1E72C
:10318000012D38BF0125DFE770B5A0B3A1FB0023F7
:1031900005460E467BBB01FB00F010F1490F2AD813
:1031A000483001F08DFD044628B33EB300F14803DA
:1031B0002360C4E90F5601F0DDFD0023FF20A36367
:1031C000216CE36B226801FB03F3591A626013441C
:1031D0000A44C4E9023284F8440084F8450004F14A
:1031E000100001F03FFF04F1240001F03BFF01F06B
:1031F000CFFD204670BD0024204670BD0346D7E7B2
:103200002DE9F043044685B01F460192884601F03F
:10321000B1FDA26BE36B9A4279D3022F77D00022E3
:1032200004F12406019B002B00F0D480002A00F05A
:10323000CD8001F0ADFD00F0C7FF01F09BFD94F8DB
:103240004430FF2B04BF002384F8443094F8453009
:10325000FF2B04BF002384F8453001F099FD02A83C
:1032600001A901F049FA002840F0BA8001F082FD7E
:10327000A26BE36B9A425CD001F08AFD01F07AFD0B
:1032800094F8452055B2002D04DC11E06A1ED3B23B
:1032900055B26BB1636A5BB1304601F0B9F90028F1
:1032A000F4D001F059FA6A1ED3B255B2002BF1D115
:1032B000FF2384F8453001F06BFD01F05BFD94F8CD
:1032C000442055B2002D14DD04F1100903E06A1EFC
:1032D000D3B255B26BB123695BB1484601F098F99E
:1032E0000028F4D001F038FA6A1ED3B255B2002B90
:1032F000F1D1FF2384F8443001F04AFD00F06CFF67
:1033000001F038FDA16BE36B012299428AD23A4663
:1033100041462046FFF7FCFE636A002B40F0A88080
:10332000002840F0A28001F033FD012005B0BDE887
:10333000F08304F1100901F02BFD4846019901F0DA
:10334000B5F801F017FD94F845305DB2002D04DCAE
:1033500011E06B1EDAB25DB26AB1636A5BB13046EE
:1033600001F056F90028F4D001F0F6F96B1EDAB23C
:103370005DB2002AF1D1FF2384F8453001F008FD49
:1033800001F0F8FC94F844305DB2002D04DC11E04B
:103390006B1EDAB25DB26AB123695BB1484601F0D7
:1033A00037F90028F4D001F0D7F96B1EDAB25DB21C
:1033B000002AF1D1FF2384F8443001F0E9FC00F049
:1033C0000BFF00289CD101F0C9FC99E702A801F08D
:1033D00087F92EE701F0DCFC002005B0BDE8F083A2
:1033E00001F0C8FC94F845305DB2002D14DD04F105
:1033F000240603E06B1EDAB25DB26AB1636A5BB1A8
:10340000304601F005F90028F4D001F0A5F96B1E53
:10341000DAB25DB2002AF1D1FF2384F8453001F021
:10342000B7FC01F0A7FC94F844305DB2002D14DD28
:1034300004F1100603E06B1EDAB25DB26AB12369D3
:103440005BB1304601F0E4F80028F4D001F084F9D3
:103450006B1EDAB25DB2002AF1D1FF2384F844304A
:1034600001F096FC00F0B8FEB6E701F077FC5AE7F1
:1034700004F1240001F0CCF800283FF454AFF4E745
:1034800038B5482001F01CFC044650B30025012348
:103490002060C0E90F3501F06DFCD4E90F31FF2049
:1034A00001FB03F32268591A626013440A44C4E919
:1034B0000232A56384F8440084F8450004F110004A
:1034C00001F0D0FD04F1240001F0CCFD01F060FC1E
:1034D0002B462A4629462046A5602560E560FFF771
:1034E0008FFE204638BD00BF2DE9F043044685B06D
:1034F0008846019201F03EFCA56B002D40F017813B
:10350000019B002B00F0C68002A801F0E9F82F46CD
:1035100004F1240601F03CFC00F056FE01F02AFC08
:1035200094F84430FF2B08BF84F8447094F8453079
:10353000FF2B08BF84F8457001F02AFC01A902A8FE
:1035400001F0DAF8002854D101F014FCA36B002B31
:1035500040F0A68004F1240901F01AFC48460199C4
:1035600000F0A4FF01F006FC94F845305DB2002D98
:1035700004DC11E06B1EDAB25DB26AB1636A5BB162
:10358000484601F045F80028F4D001F0E5F86B1E3C
:10359000DAB25DB2002AF1D1FF2384F8453001F0A0
:1035A000F7FB01F0E7FB94F844305DB2002D14DD29
:1035B00004F1100903E06B1EDAB25DB26AB123694F
:1035C0005BB1484601F024F80028F4D001F0C4F8BB
:1035D0006B1EDAB25DB2002AF1D1FF2384F84430C9
:1035E00001F0D6FB00F0F8FD00284AD101F0B6FB4F
:1035F00047E001F0BFFB94F845305DB2002D04DCDC
:1036000011E06B1EDAB25DB26AB1636A5BB130463B
:1036100000F0FEFF0028F4D001F09EF86B1EDAB235
:103620005DB2002AF1D1FF2384F8453001F0B0FBF0
:1036300001F0A0FB94F844305DB2002D14DD04F1DC
:10364000100903E06B1EDAB25DB26AB123695BB1A7
:10365000484600F0DDFF0028F4D001F07DF86B1E35
:10366000DAB25DB2002AF1D1FF2384F8443001F0D0
:103670008FFB00F0B1FD01F07DFBA36B53B101F0B6
:1036800087FB01F077FBA56B002D50D1019B002B30
:103690007FF440AF01F07CFB002005B0BDE8F08373
:1036A00001F076FB01F066FB94F845305DB2002D29
:1036B00014DD04F1240903E06B1EDAB25DB26AB1D5
:1036C000636A5BB1484600F0A3FF0028F4D001F024
:1036D00043F86B1EDAB25DB2002AF1D1FF2384F801
:1036E000453001F055FB01F045FB94F844305DB2E4
:1036F000002D14DD04F1100903E06B1EDAB25DB297
:103700006AB123695BB1484600F082FF0028F4D01B
:1037100001F022F86B1EDAB25DB2002AF1D1FF236C
:1037200084F8443001F034FB00F056FDA9E7226C28
:103730005AB1E168A36811449942E16028BF216849
:10374000404628BFE16002F017FA2369013DA563F6
:103750002BB901F01DFB012005B0BDE8F08304F199
:10376000100000F055FF0028F3D001F0F7FAF0E761
:103770002DE9F043044685B0019101F0FBFAA56BF9
:10378000002D40F03B81019B002B00F0818002A8BE
:1037900000F0A6FF2F46A84604F1240601F0F8FA2F
:1037A00000F012FD01F0E6FA94F84430FF2B08BF58
:1037B00084F8448094F84530FF2B08BF84F8458096
:1037C00001F0E6FA01A902A800F096FF002862D1F4
:1037D00001F0D0FAA36B002B40F0AC8001F0D8FAD6
:1037E0002368002B00F0018104F124094846019967
:1037F00000F05CFE01F0BEFA94F845305DB2002D99
:1038000004DC11E06B1EDAB25DB26AB1636A5BB1CF
:10381000484600F0FDFE0028F4D000F09DFF6B1E2E
:10382000DAB25DB2002AF1D1FF2384F8453001F00D
:10383000AFFA01F09FFA94F844305DB2002D14DD28
:1038400004F1100903E06B1EDAB25DB26AB12369BC
:103850005BB1484600F0DCFE0028F4D000F07CFFAD
:103860006B1EDAB25DB2002AF1D1FF2384F8443036
:1038700001F08EFA00F0B0FC002800F0A58001F005
:1038800079FAA56B002D40F0B980019B002B85D102
:1038900001F07EFA4AE001F06DFA94F845305DB22D
:1038A000002D04DC11E06B1EDAB25DB26AB1636A0E
:1038B0005BB1304600F0ACFE0028F4D000F04CFFC5
:1038C0006B1EDAB25DB2002AF1D1FF2384F84530D5
:1038D00001F05EFA01F04EFA94F844305DB2002D2A
:1038E00014DD04F1100903E06B1EDAB25DB26AB1B7
:1038F00023695BB1484600F08BFE0028F4D000F04D
:103900002BFF6B1EDAB25DB2002AF1D1FF2384F8DF
:10391000443001F03DFA00F05FFC01F02BFAA36B9C
:10392000002B4ED101F034FA002F50D1002005B009
:10393000BDE8F08301F02CFA01F01CFA94F8453050
:103940005DB2002D14DD04F1240903E06B1EDAB230
:103950005DB26AB1636A5BB1484600F059FE002867
:10396000F4D000F0F9FE6B1EDAB25DB2002AF1D19C
:10397000FF2384F8453001F00BFA01F0FBF994F8CD
:1039800044305DB2002D14DD04F1100903E06B1E1C
:10399000DAB25DB26AB123695BB1484600F038FE25
:1039A0000028F4D000F0D8FE6B1EDAB25DB2002A17
:1039B000F1D1FF2384F8443001F0EAF900F00CFC67
:1039C0005DE701F0E5F95AE701F0C8F957E701F0C2
:1039D000D1F9616A19B1236B1968C1F10601A068B8
:1039E00000F03EFF01F0D4F9A0E701F0C3F9A068B0
:1039F00000F0B8FE074601F0CBF9F5E62368013D7B
:103A0000A56383B123692BB901F0C2F9012005B088
:103A1000BDE8F08304F1100000F0FAFD0028F3D0B7
:103A200001F09CF9F0E700F057FFA060EAE700BF63
:103A300000296BD0564B5A68904200F08B801A6870
:103A400010B4002A3BD0DA68904200F09E809A6859
:103A5000002A55D05A69904200F095801A69002AD0
:103A600055D0DA69904200F082809A69002A54D0D9
:103A70005A6A904256D01A6A002A57D0DA6A90429F
:103A800077D09A6A002A56D05A6B904273D01A6B3C
:103A9000002A55D0DA6B90426FD09A6B002A54D02E
:103AA0005A6C90426BD01A6C002A59D0DA6C904252
:103AB00067D09B6C002B58D05DF8044B7047DA68D8
:103AC000904262D05A6990425DD01A46DC69A042A9
:103AD0004DD05C6AA04225D0DC6AA04249D05C6B24
:103AE000A04248D0DC6BA04247D05C6CA04246D0DC
:103AF000DC6CA04245D0C2E900105DF8044B704771
:103B00005A6990423FD003F10802DFE77047DA6953
:103B100090422CD003F11002DBE75A6A904201D0A8
:103B20001C4AD9E7042203EBC202E4E7DA6A9042B6
:103B30001FD0194AD3E75A6B90421CD0174AD1E7DD
:103B4000DA6B904219D0164ACFE75A6C904216D0E1
:103B5000144ACDE7002203EBC202C2E9001070470D
:103B6000DA6C90420DD0104AC5E7104AC3E7032231
:103B7000D9E70522D7E70622D5E70722D3E70822AF
:103B8000D1E70922CFE70222CDE70122CBE700BF30
:103B90003010002048100020501000205810002045
:103BA00060100020681000207010002078100020A5
:103BB00070B505460E46144601F0DCF895F8443021
:103BC000FF2B04BF002385F8443095F84530FF2BC8
:103BD00004BF002385F8453001F0DAF8AB6B002B09
:103BE00043D001F0C7F895F845305CB2002C14DDE5
:103BF00005F1240603E0631EDAB25CB26AB16B6AB7
:103C00005BB1304600F004FD0028F4D000F0A4FDC4
:103C1000631EDAB25CB2002AF1D1FF2385F8453089
:103C200001F0B6F801F0A6F895F844305CB2002C2B
:103C300014DD05F1100603E0631EDAB25CB26AB16E
:103C40002B695BB1304600F0E3FC0028F4D000F0B3
:103C500083FD631EDAB25CB2002AF1D1FF2385F83E
:103C60004430BDE8704001F093B82246314605F17A
:103C7000240000F067FCB4E72DE9F041044601F0B0
:103C800079F8364A364E1368013313603368002BD7
:103C900034D0344FE36A3A684AB3334D3349344839
:103CA0000A6804F1040C01320A6002689A4238BFC3
:103CB000036003EB830305EB830041689B00EA5834
:103CC000D1F808E0A160C4F80CE00132CEF804C0DD
:103CD000C1F808C06061EA5001F05AF83B6823B1AE
:103CE0003268E36AD26A9A4210D3BDE8F081326842
:103CF0001D4DD26A9A4298BF3460CFE73460136892
:103D0000012B07D0E36A184D164FC7E7BDE8F04115
:103D100001F024B8144D2F4605F1780838461437C1
:103D200001F0A0F94745F9D1DFF86080114F404616
:103D300001F098F9384601F095F90F4801F092F931
:103D40000E4801F08FF90E4801F08CF90D4BC3F8C5
:103D500000800D4B1F60E36A024F9FE7481300206D
:103D6000B0120020D8130020C412002054130020E9
:103D70005813002098130020C4130020F0130020D3
:103D8000DC130020B8120020BC1200208413002095
:103D900080B5124D124F134EDFF84C8014E000F046
:103DA000E9FFFB68DC68201D01F092F93368013BF4
:103DB00033602B68013B2B6000F0EAFF206B00F0C2
:103DC0008BFF204600F088FF2B68002BE7D1D8F846
:103DD0000030012BF8D900F0C1FFF5E74C130020AB
:103DE000F013002048130020C41200202DE9F04FEA
:103DF0004C4B83B01D6801351D60002D67D04A49CA
:103E00000B689D4277D3494E33681868002800F04C
:103E100084800020AA4607468146DFF828E1444C0A
:103E2000019147E05869D3E9022CC2F808C0CCF8E8
:103E3000042042688A42026808BFC0F804C0013A00
:103E40005F610260986A70B1D3E9072CC2F808C0BC
:103E5000CCF804204268AA42026808BFC0F804C037
:103E6000013A9F620260DA6ADEF8000002EB820C1F
:103E700004EB8C088242D8F8040054F82C50D0F897
:103E800008B09860C3F80CB0CBF804108160C3F898
:103E90001480284B88BFCEF800201968013533689C
:103EA00044F82C50C96A1B688A4288BF49F001094E
:103EB000002B30D03368DB68DB685A68191D9245E7
:103EC00003F11805AED2019948460A6014E0174B79
:103ED000194A186811681960184910600A68013297
:103EE0000A601A68126882B94FF0FF330E490B60FE
:103EF0000B689D4287D20020114B1B68002B18BF16
:103F000040F0010003B0BDE8F08F1B680649DB6894
:103F10001B680B6074E7484601994FF0FF330B6054
:103F2000EAE700BF04140020B8130020B8120020F4
:103F3000C4120020B0120020BC120020BC130020CC
:103F400010140020581300202DE9F84395008046F6
:103F500028460F46994600F0B3FE002872D0064668
:103F6000702000F0ADFE0446002868D0043D7022A9
:103F70000021354401F088FD25F007052663002F58
:103F80003BD03B7884F83430002B36D07B7884F8F3
:103F9000353093B3BB7884F8363073B3FB7884F84C
:103FA000373053B33B7984F8383033B37B7984F8B6
:103FB000393013B3BB7984F83A30F3B1FB7984F824
:103FC0003B30D3B13B7A84F83C30B3B17B7A84F890
:103FD0003D3093B1BB7A84F83E3073B1FB7A84F8FC
:103FE0003F3053B13B7B84F8403033B17B7B84F866
:103FF000413013B1BB7B84F84230089F201D052F50
:1040000028BF0527E762676401F038F8C7F10607A3
:1040100004F1180001F032F84B4642462846216B65
:10402000A7612461646200F0D5FE099B206003B1A2
:104030001C602046FFF720FE0120BDE8F8833046D3
:1040400000F04AFE4FF0FF30BDE8F883F8B50446B3
:10405000254E00F08FFE002C3FD0271D384601F082
:1040600037F8A36A1BB104F1180001F031F81F4AB8
:104070001F4D1368013313603368A3422B681FD0B0
:104080001C4A1368013B13601B4B1A68126892B1FB
:104090001A681A4BD26812681A6000F079FE206B19
:1040A00000F01AFE204600F017FE2B6813B13368AB
:1040B000A34214D0F8BD4FF0FF32104B1A60ECE76A
:1040C000002BDDD039460E4800F0DCFF0D4A1368A6
:1040D0000133136000F05CFEE7E73468BDE7BDE83C
:1040E000F84000F03BBE00BFB01200205413002087
:1040F000D813002048130020B8120020B813002065
:10410000F01300204C1300202DE9F8434FF4007009
:1041100000F0D6FD88B30646702000F0D1FD0446BD
:1041200078B30027DFF898903946702201F0ACFC94
:1041300006F5FE75C4E90C690626201D00F09EFFF9
:1041400025F0070504F1180000F098FF3B46174AD8
:10415000216B28462461A661646200F03BFE0346A1
:10416000DFF86080236020460127C8F80040FFF791
:1041700083FD00F063FDB8420AD00D4B1B68BDE81B
:10418000F883304600F0A8FD094B1B68BDE8F883B2
:1041900000F0FAFE4FF0FF3400220649064B0748B4
:1041A00004600F601A6000F051FEE6E7913D0010D8
:1041B00084610010D813002004140020B8130020DC
:1041C00049444C45B0130020024A13680133136080
:1041D000704700BF501300202DE9F04FDFF86C81CD
:1041E00083B000F0C7FDD8F80030013BC8F80030BC
:1041F000D8F800E0BEF1000F40F081804C4B1B6806
:10420000002B7CD0DFF848C1DCF80030002B00F038
:104210008B80484BDFF83C91474E0193DCF80C3023
:10422000DB689A6AD3E9070154688160486003F14A
:104230001800844208BF51601168C3F828E00139B2
:1042400011605A69D3E90241A1604C6054681D1D98
:10425000AC4208BF51601168D9F800000139116003
:10426000DA6A8242354802EB820188BFC9F8002031
:10427000006806EB81077C68D0F82CA056F8210076
:10428000D4F808B0013052459C60C3F80CB0CBF8AC
:104290000450A5605F6146F8210037D90122019BD7
:1042A0001A60DCF80030002BB8D1254B1A68126870
:1042B000002A34D01A68234BD26812681A60224D43
:1042C0002C689CB10126019F05E0FFF78FFD00B12E
:1042D0003E60013C09D0D8F80030002BF5D02B68A7
:1042E000013C03F101032B60F5D12C60019B1B689D
:1042F0002BB1124B01241B6800F030FD00E00024BC
:1043000000F046FD204603B0BDE8F08FDCF8003039
:10431000002B83D10A4B1A681268002ACAD14FF0C9
:10432000FF32084B1A60CAE7024B0193C7E700BF90
:104330004813002010140020C4120020B0120020E6
:10434000B8120020B8130020C01300205013002022
:10435000C41300205813002008B900F0FFBC194A0C
:104360002DE9F04113680446013313601649174BD9
:10437000174D184A0E681768D3F800802868043073
:1043800000F0A6FE2B68A41929685C600DD238469F
:10439000043100F085FE104B1A68944238BF1C604F
:1043A000FFF71AFF48B1BDE8F0814046043100F044
:1043B00077FEFFF711FF0028F5D1BDE8F04100F0CE
:1043C000CDBC00BF5013002004140020BC120020FC
:1043D000B0120020B8120020B8130020014B18685A
:1043E000704700BF04140020054B1B680BB9FFF792
:1043F000FDBC044A0020136801331360704700BFFE
:1044000050130020C0130020234B1B681BB1012256
:10441000224B1A607047214A30B4214C1360206847
:10442000204A00EB800352F8233081008BBB431EEF
:1044300003EB830552F825509900B5B9831E03EBB1
:10444000830552F8255099007DB9C31E03EB8305FF
:1044500052F82550990045B9031F03EB830552F824
:10446000255099000DB9431F9900194402EB8100B2
:1044700002464168083249689142416008BFC168FC
:10448000094A08BF4160C96811602360136830BCE5
:1044900070470346E9E700BF5013002010140020C6
:1044A00058130020C4120020B01200202DE9F04162
:1044B0000C461E4D2968183100F0F2FD1C4B1D49B9
:1044C0001D4A0E681768D3F800802868043000F091
:1044D000FFFD631C15D02B68A41929685C600AD203
:1044E0003846043100F0DCFD144B1A68944238BFA2
:1044F0001C60BDE8F0814046BDE8F041043100F0A9
:10450000CFBD0F4B29685A681C688A602E68013439
:10451000286829681C602D68946804300431F460B0
:10452000606091606B61BDE8F08100BFB012002057
:10453000BC12002004140020B8120020B813002080
:10454000DC13002094462DE9F0412B4C0D462368E6
:104550004168D4F80080D9612768036826688A68B2
:10456000D4F800E0013318371836C8F82020576017
:104570008E60224ACEF8280021490360214BBCF10D
:10458000000F1AD0096812681B682068043000F018
:104590009FFD1D4B19685A680131196021689068A8
:1045A0008A602168C8602168043141602168206800
:1045B000043191604361BDE8F0810E681768D3F85B
:1045C00000802068043000F083FD2368AD19216865
:1045D0005D6005D34046BDE8F041043100F060BDA8
:1045E0003846043100F05CFD084B1A68954238BF2C
:1045F0001D60BDE8F08100BFB0120020B81200209D
:1046000004140020BC120020DC130020B81300208A
:10461000F0B40026C368DB689A6AD3E907018160B9
:104620004860506803F11804A042274808BF516051
:10463000116805680139D86A9E621160002D2FD17A
:10464000D3E902415A69A1604C6054681E1DB4420E
:1046500008BF51601168013911601C4A116881421C
:104660001B4938BF106000EB800201EB82077D68B8
:104670009200D5F808C08C589D60C3F80CC0CCF8E7
:104680000460AE605F61134B01341B688C50DB6AC1
:10469000834215D2F0BC01230F4A184613607047BD
:1046A0000E4A15685168013515608D68D9611D6223
:1046B0006C608C609A62074B1B68DB6A8342E9D3AB
:1046C000F0BC0020704700BF50130020581300209A
:1046D000C4120020B012002010140020C4130020C7
:1046E000034A044B12681B68C0E90023704700BFEF
:1046F000BC13002004140020F8B50D46044600F059
:1047000039FB2B68124A581C11681BD0D4E9006091
:10471000DFF840C0DCF80070BE4208D0884206D8FE
:10472000002301242B6000F033FB2046F8BD0F1A54
:10473000BB42F5D95B1ADCF80010126803442B6009
:10474000C4E90012002400F023FB2046F8BD00BF9E
:1047500004140020BC1300200122014B1A60704792
:1047600010140020F8B50446C8B11F4DC36A2A686A
:10477000D26A934214D28269002A04DB2A68D26A80
:10478000C2F106028261194E626903EB830306EBF4
:1047900083039A420CD02B68DB6AE3620120F8BDE8
:1047A0002B68406CDB6A98422CBF00200120F8BDCA
:1047B000271D384600F08CFC2B680D4ADB6A116817
:1047C000E3628B4288BF136003EB8303980006EB20
:1047D0008303596832588D680132A160E5606F60CB
:1047E0008F6063613250D9E7B0120020C4120020FC
:1047F0005813002058B1F8B5C16A836C426C013B74
:1048000091420446836400D01BB10020F8BD002013
:104810007047061D304600F05BFC636C0E4AC3F126
:104820000600A06101201168E3628B4288BF13601B
:104830000A4A03EB83034FEA830C02EB83035D68B0
:1048400052F80C10AF680144A560E7607E60AE606E
:10485000636142F80C10F8BD58130020C412002008
:1048600060B1426CF8B5914238BF1146C36A044644
:104870008B4202D0826C012A01D0F8BD7047826958
:10488000134D002A03EB83034269C16205EB8303E6
:10489000A4BFC1F1060181619A42EED1061D3046E6
:1048A00000F016FC0B4AE36A11688B4288BF136064
:1048B00003EB8303980005EB830359682A588F683C
:1048C0000132A160E7607E608E6063612A50F8BDAE
:1048D000C412002058130020034B186810B1836CD9
:1048E00001338364704700BFB01200202DE9F04F00
:1048F000B74FDFF8E4B2DFF8E482B64D87B03B682B
:104900001C68002C40F01D81FFF75EFCFFF766FD80
:10491000DBF800308146834248D8D8F80030CBF825
:1049200000001A68B2FA82F252092868A4EB090161
:10493000FFF73EF9FFF750FC002800F02481002328
:10494000CDE90233CDE904330022286802A9FEF73D
:10495000CBFD0028D3D0029B0498002BC0F2E98045
:10496000DDF810A0DAF814301BB10AF1040000F0F1
:10497000AFFBFFF733FDDBF800300190984243D3E3
:10498000DDE90123013BCBF80020082BDCD8DFE870
:1049900003F06161C0A5C76161C0A50022F00102FA
:1049A0008AF824205046DAF8203098473B681A6885
:1049B000002A00F0D880DA68D2F80CA014680AF156
:1049C0000406304600F084FB9AF824205107E5D510
:1049D00003E05046DAF820209047DAF81820CAF8A9
:1049E00010A01119A418CAF80410F2D33146D8F84F
:1049F000000000F055FBD5E721F0010189F82410F3
:104A00004846D9F8203098473B681968002900F0DB
:104A1000B480D968D1F80C900C6809F104063046CE
:104A200000F056FB99F824104807E5D503E0484606
:104A3000D9F820108847D9F81810C9F8109008192B
:104A40006418C9F80400F2D33146D8F8000000F029
:104A500027FBD5E79AF824000399DAF81840019A61
:104A60000B1940F001068AF824602CBF01260026AD
:104A70009342CAF80430CAF810A000F28780511A95
:104A80008C423FD8410712D420F001008AF824005C
:104A90005046DAF82030984756E78C4200F2C6803C
:104AA000DAF82030504698473346DAF81840019A31
:104AB000E6182CBF01200020B242A2EB0301CAF885
:104AC0000460CAF810A0E8D29A4201D20028E7D0C8
:104AD00038680AF1040100F0E3FAD9E70399019A72
:104AE0009AF82430881843F0010390428AF8243061
:104AF000CAF81810CAF80400CAF810A04BD8002948
:104B00003FF422AFD8F800000AF1040100F0C8FA1F
:104B10001AE79AF8243023F001038AF8243013E7C7
:104B20009AF824309A0777D523F001038AF82430C5
:104B30000AE7039B05999847029B002BFFF604AFF9
:104B40000EE7DB681C68FFF73FFBFFF747FCDBF86D
:104B50000030814683423FF629AF8442CBF8000003
:104B60001FD90022E1E6D8F80020CBF800903A6087
:104B7000C8F80030FFF730FBE1E6D8F80010C8F8BD
:104B800000303960FCE600F0E9F8D8E6914202D93D
:104B9000002E3FF477AF38680AF1040100F080FA84
:104BA000D2E6FFF719FB3B68DB68DE68331D184669
:104BB000019300F08DFA96F82420530716D422F0C2
:104BC000010286F824203046336A9847B7E600BFD2
:104BD000B412002008140020B4130020C0120020DA
:104BE00081421DD83046316A88475446B169A9EBE5
:104BF000040014EB010A2CBF01230023CA45C6F8A8
:104C000004A03661ECD94C4501D9002BEAD00199BA
:104C1000386800F045FAD6E7504600F05DF893E6B4
:104C20000199D8F8000000F03BFACCE7D8F8000072
:104C30000AF1040100F034FA2AE700BFF0B5174C7E
:104C400083B000F097F825687DB100F0A1F82068E6
:104C500048B10324124800230190802211491248D0
:104C60000094FFF771F903B0F0BD104E104F3046BD
:104C700000F0F8F9384600F0F5F90E4A0E4B1760CF
:104C800010212A460A201E60FEF77EFA20600028C6
:104C9000DBD00A49FEF7CCFED7E700BF081400209E
:104CA0000C140020C8600010ED4800105C130020B8
:104CB00070130020C0120020B4120020C060001049
:104CC00010B50446FFF780FA2046FCF7F9FB0446CE
:104CD000FFF782FA204610BD50B110B50446FFF729
:104CE00073FA2046FCF7FEFBBDE81040FFF774BAEC
:104CF000704700BF002300B583B0019300F044F972
:104D0000019B002BFCD003B05DF804FB10B500F054
:104D10003BF90446FFF768FB28B14FF0E0234FF062
:104D20008052C3F8042D2046BDE8104000F038B989
:104D300010B504224FF0E024002322610520A36176
:104D4000FCF7C6F80721044BA3FB00239B09013B9A
:104D50006361216110BD00BFD34D62104FF0E023AD
:104D60004FF08052C3F8042DBFF34F8FBFF36F8F06
:104D7000704700BF08B500F007F9044A1368013313
:104D80001360BFF34F8FBFF36F8F08BD480900203A
:104D9000044B1A68013A1A60186800B1704700F0B5
:104DA000FFB800BF48090020836913F8023C662B56
:104DB00000D070474FF0E023D3F8882D42F4700202
:104DC000C3F8882DD3F8342F42F04042C3F8342F73
:104DD00000F0BCB82DE9F04F4FF0113E4FF0807459
:104DE00040E909E34FF0073340F8044C164C40F813
:104DF000343C40E903424FF005334FF006324FF0A8
:104E0000123B40E90F324FF0033A4FF002394FF0B6
:104E100001384FF010374FF009364FF008354FF09A
:104E200004346FF0020340E905AB40E9078940E92B
:104E30000B6740F8305C40F8404C40F8443C40F888
:104E4000481DBDE8F08F00BFF54C00104FF0E02387
:104E50004FF07F42002110B584B00291C3F81C2DA1
:104E6000D3F81C3D1B0E8DF807309DF807309DF8D8
:104E700007301A060CD5029B013302939DF80730C8
:104E80005B00DBB28DF807309DF807301B06F2D4CB
:104E9000029B082B3AD0029AC2F10702120202F4D6
:104EA000E0624FF0E023002419490E200A60D3F895
:104EB000202D184942F47F02C3F8202DD3F8202D6D
:104EC00042F07F42C3F8202DC3F81C4DFDF7ECFFE4
:104ED00011490F20FDF7E8FF10490B20FDF7E4FF13
:104EE000FFF726FF4FF050420D490E4B0C60126841
:104EF0001A7000F041F8FFF787FA039400F044F8C5
:104F0000039B002BFCD0002004B010BD0022C8E79A
:104F100044130020B14F00100D4D0010315000100F
:104F2000480900204409002008B5FBF7EFFA044BBC
:104F3000044A0344136000F087F8034B186008BD6F
:104F4000F0110020AC120020AC130020094A1168B7
:104F5000086806C881F30B88022181F31488203089
:104F600080F30988BFF36F8F4FF0000080F3118842
:104F700010470000B012002062B661B6BFF34F8F39
:104F8000BFF36F8F66DF00BFEFF311804FF01001AA
:104F900081F31188BFF34F8FBFF36F8F704700BF4E
:104FA00080F31188BFF34F8FBFF36F8F704700BF3F
:104FB000EFF309811EF0100F08BF21ED108AEFF307
:104FC0000B82734621E9FC0F55FC084457FC096429
:104FD00059FC0A8401E9F003144A136819604FF080
:104FE000100181F31188BFF34F8FBFF36F8FFFF76D
:104FF0000BFA4FF0000080F311880C4A1168086822
:105000001838B0E8F00345EC004447EC016449EC83
:105010000284B0E8FC0F13F0100F08BFB0EC108A48
:1050200082F30B8880F3098818470000B012002033
:105030001EF0040F0CBFEFF30880EFF30980014965
:1050400008470000A94D001010B51820FFF738FEE2
:10505000044620B1002340F8043B00F003F820464A
:1050600010BD00BF4FF0FF31002200F10803C0E97E
:105070000131C0E903330260704700BF00230361C0
:10508000704700BF10B4D0E9003294680133C1E921
:105090000124616091605DF8044B08610360704712
:1050A00030B40D686B1C10D000F108031C465B681F
:1050B0001A68AA42FAD902684B60013299608C6082
:1050C0006160086130BC0260704704696368F2E7A0
:1050D0000346026910B45468406899689C42816034
:1050E000486008BF5160002110685DF8044B01382A
:1050F00019611060704700BF2DE9F04784460C46E7
:1051000000252CF00F0864B244EA0808384F394EE5
:105110004FFA88F884B048F0080A39780DF10F0288
:10512000012330685FFA8AFA009544EA0C148DF87E
:105130000FA0FDF7DDFF4FF416700021FBF754FDC3
:1051400000950DF10F0201233978306848F00C0802
:105150008DF80F80FDF7CCFF4FF416700021FBF7A0
:1051600043FD00950DF10F0201233978306864B2D8
:105170008DF80FA0FDF7BCFF4FF416700021FBF770
:1051800033FD44F0080900950DF10F020123397831
:105190005FFA89F930688DF80F90FDF7A9FF4FF499
:1051A00016700021FBF720FD00950DF10F02012381
:1051B0003978306844F00C048DF80F40FDF798FF03
:1051C0004FF416700021FBF70FFD3978306801238A
:1051D0000DF10F0200958DF80F90FDF789FF4FF448
:1051E0001670002104B0BDE8F047FBF7FDBC00BF1E
:1051F000141400206C12002000210120FFF77CBF56
:1052000010B5844684B08E46084B04AC0FCB04E93D
:105210000F00002104EB8C0C5CF8100C8030704403
:10522000C0B204B0BDE81040FFF766BF886100104F
:1052300010B50446007830B10121FFF75DFF14F886
:10524000010F0028F8D110BD38B50A460546134BAA
:10525000134C002103201A702560FFF74DFF002139
:105260000320FFF749FF00210320FFF745FF00213E
:105270000220FFF741FF00210620FFF73DFF00213C
:105280002820FFF739FF00210C20FFF735FFBDE88C
:10529000384000210120FFF72FBF00BF1414002069
:1052A0006C12002030B5002449F2F54C0B4D85B04E
:1052B00003AA0094022376212860ADF80CC0FDF704
:1052C00017FF42F6F47C28680223762103AA009493
:1052D000ADF80CC0FDF70CFF05B030BD6412002026
:1052E0000123882270B500258AB0164E009304462B
:1052F0008DF80F2076210DF10F023068CDE90455AD
:10530000CDE90655CDE90855FDF7F2FE306804AA4F
:10531000182376210095FDF7F3FE0799BDF81020BC
:10532000DDF81230BDF81600E16006992280C4F85D
:105330000230E080DDE90823A160226163610AB0E8
:1053400070BD00BF6412002001234FF0F70C70B550
:10535000174E86B004460D4630680DF10F020093DB
:1053600076218DF80FC0FDF7C3FE002230680623BA
:105370000092762104AAFDF7C3FE9DF811209DF846
:105380001010120142EA01329DF812109DF81430FB
:1053900042EA11129DF813101B0143EA01339DF8F4
:1053A00015102A6043EA1113236006B070BD00BFD8
:1053B000641200200A8808B5C2EB201303FB03F334
:1053C000B1F904C05200B1F90210C2EBE0021813A7
:1053D0000CFB00F001FB02F2801300EBE22000EB7B
:1053E000800080300012FBF7C5FF0022024BFBF764
:1053F00065FFFBF7B1FF08BD0000594084461088E7
:1054000010B5C0EB211303FB03F34000C0EBE10038
:10541000B2F902101B1301FB00F0B2F90410B2F94B
:105420000AE001FB03F39B1303EBE0235B10A3F5FE
:105430007A418B1003FB03F4B2F90830601301FBCF
:1054400003F300FB0EF05B1003EBE0039B14D0882A
:1054500003F5004300FB03F3D8133AD0B2F90E3042
:105460004FEAE42E01FB03F3B2F910105B0001FBDD
:105470000E33B2F90C10090401EBA30315490CEB30
:10548000233C01FB0CFC0CF1434C0CF5A00CBCF1D3
:10549000000FB3BFBCFBF0FC4FEA4C0CBCFBF0FCB4
:1054A0004FEA4C0C4FEADC0303FB03F3B2F916009E
:1054B000B2F914105B0B00FB03F34FEA9C0001FBF5
:1054C00000F0B2F91220401300EB233010440CEB33
:1054D000201010BDCBF3FFFF024B0146186800F00F
:1054E0000BB800BF600D0020024B0146186800F0A9
:1054F00043BC00BF600D002001F10B03162B2DE90A
:10550000F04F074683B023D8102900F2AF8000F097
:10551000AFFA102518230220BA4E33445C68A3F179
:105520000802944200F056816368384623F0030372
:10553000D4E902122344CA6091605A68083442F0E8
:1055400001025A6000F09AFA204603B0BDE8F08FDD
:10555000002B23F00705C0F28980A94200F2868063
:1055600000F086FAB5F5FC7FC0F07B826B0A00F094
:105570008480042B00F26281AB0903F1390003F14E
:10558000380EC3009F4E3344A3F1080C5C68A44559
:1055900007D10DE0002AE16880F216818C450C46A7
:1055A00006D0636823F003035A1B0F2AF2DD70460E
:1055B000DFF868823469444500F0F280636823F0C4
:1055C000030CACEB05030F2B00F37481002BC6E931
:1055D000048880F26381BCF5007FD6F804E080F097
:1055E000FF804FEADC0301224FEA5C1C013302FA20
:1055F0000CF256F833104EEA020E06EBC302083ADC
:10560000C6F804E0C4E9021246F83340CC608310C7
:105610004FF0010C0CFA03FCF44534D81CEA0E0FD1
:1056200007D120F003004FEA4C0C04301CEA0E0FA7
:10563000F9D006EBC00A8146D646DEF80C300BE006
:105640005A681C46DB6822F00302511B0F2900F345
:105650000181002980F215819E45F1D109F10109EE
:105660000EF1080E19F0030FE7D158E10C233B604F
:105670000024204603B0BDE8F08F4FF400734020B3
:105680004FF03F0E7EE7B468636823F00309A94535
:10569000A9EB050302D30F2B00F385805A4B08209A
:1056A0001B6803F1100804EB0903009300F056FA9D
:1056B000564AA84483461368013305D008F1FF38E1
:1056C0004342804403EA08084146384600F02AFA7B
:1056D000B0F1FF3F82464D4A00F0078104EB090319
:1056E000834200F200814A4B0BF1FF3C18684044B2
:1056F000186000F064811168013100F06C8104EBE6
:105700000902AAEB020202441A601AF00702CDE96C
:10571000002300F02781C2F10802384692445A441F
:10572000D04408EA0C01521A02EA0C0B594600F068
:10573000F9F9421C019B00F06A81A0EB0A0000EB22
:105740000B08186848F00102B442C6F808A0584493
:10575000CAF80420186017D0B9F10F0F40F23E814B
:105760006168A9F10C024FF0050C22F0070201F06C
:10577000010111430F2A616004EB0201C1E901CC70
:1057800000F24D81DAF80420224B54461968814218
:1057900038BF1860204B1968814238BF1860A6E0F6
:1057A000D6F804E033E7621945F0010543F0010340
:1057B000083444F8045C3846B260536000F05EF987
:1057C000204603B0BDE8F08FA26823443846D1607C
:1057D0008A60B2E6DC68A3427FF4A6AE0230E7E658
:1057E000BCF5206F4FEA5C2276D3142A00F2CD80FC
:1057F00002F15C035B32DB00F118F358083999427F
:1058000011D1A5E058090020B41000204C09002057
:1058100084100020AC100020B0100020600900208F
:105820009B68994204D05A6822F003026245F7D877
:10583000D968C4E902318C60DC60E8E6142B63D9D6
:10584000542B00F2AB802B0B03F16F0003F16E0EB3
:10585000C30097E6D4F808C03846671945F001053B
:105860006560CCF80C30C3F808C041F00103C6E90C
:105870000477C7E902887B60A150083400F0FEF885
:10588000F7E622443846516841F00101516054F86E
:10589000082FD3609A6000F0F1F8EAE6A444384695
:1058A0000834DCF8043043F00103CCF8043000F095
:1058B000E5F8DEE6621943F0010145F001053846DE
:1058C0006560C6E90422C2E90288516044F80C30E0
:1058D000083400F0D3F8CCE64FEA9C1202F1390309
:1058E0003832DB0088E7B44262D0B468626822F0E4
:1058F0000308A845A8EB050302D30F2B3FF753AFCE
:10590000384600F0BBF8B3E603F15C0003F15B0E30
:10591000C30037E65AF80839534540F0A08010F02C
:10592000030F00F1FF30F5D1736823EA0C037360B5
:105930004FEA4C0C0CF1FF329A4204D3A3E64FEA33
:105940004C0C09F104091CEA030FF8D0484670E634
:1059500092104FF0010C0CFA02F24EEA020EC6F859
:1059600004E066E70AEB0802384602EA0C02ABEBF9
:10597000020B0BEA0C0B594600F0D4F8431C019BB8
:105980007FF4DBAEDDF800B0DBE6542A2AD84FEA1C
:105990001C3202F16F036E32DB002DE7B3F5AA7FF4
:1059A0002AD8EB0B03F1780003F1770EC300E9E589
:1059B0002E4B0BF1FF3C1868404418609BE61AEA36
:1059C0000C0F7FF498AEC844D6F808A048F0010246
:1059D000CAF80420D8E6C2F800A096E60123CAF867
:1059E00004308DE7B2F5AA7F24D84FEADC3202F109
:1059F00078037732DB00FFE640F25452934224D81A
:105A0000AB0C03F17D0003F17C0EC300BAE5009AF4
:105A10004FF0000B083A9044A8EB0A0891E638468C
:105A200004F10801009300F0A7F9009BD6F808A044
:105A30001868A7E640F254539A420CD84FEA9C42A9
:105A400002F17D037C32DB00D6E64FF47E737F20CB
:105A50004FF07E0E96E54FF47E737E22CCE673689F
:105A600066E7E80805F1080356E500BF841000204A
:105A7000014800F06FB800BF80100020014800F01E
:105A80006BB800BF80100020830730B546D0841863
:105A9000844604E003F8011B9D0704D09C46A445FE
:105AA0006346F7D130BD013A0244A2EB0C02032A4F
:105AB00029D9CCB20F2A04EB042404EB04442FD9D7
:105AC000A2F1100C03F110052CF00F0CAC44C3E94B
:105AD0000044C3E9024410336345F8D112F00C0FBF
